:060000008031AF2C00006E
:0800080083018031200077081C
:10001000A0007808A1007908A2007A08A3008B1E2E
:1000200013280B192328850191308400001C1A28FD
:10003000111825282008F7002108F8002208F900E7
:100040002308FA0009008031272880313428150858
:10005000031D31280D150630F700F70B2D28000081
:100060000D110B1180311A289601803097009601EE
:10007000AA0A0319AB0A25083A3C031C4128A50A21
:100080004328A501A60A26083C3C031D4928A601D1
:10009000A70A2708183C031D5328A701A80A03191B
:1000A000A90A0130B800111080311A280530230048
:1000B00091009513151413082000D4000830230074
:1000C00091009513151413082000D5005408BB00A7
:1000D0005508BA000A30230091009513151413082F
:1000E0002000D4000B302300910095131514130841
:1000F0002000D5005408BD005508BC000F30230077
:1001000091009513151413082000D400103023001B
:1001100091009513151413082000D5005408BF0052
:100120005508BE00143023009100951315141308D0
:100130002000D400153023009100951315141308E6
:100140002000D5005408C1005508C0001930230014
:1001500091009513151413082000D4001A302300C1
:1001600091009513151413082000D5005408C300FE
:100170005508C2001E302300910095131514130872
:100180002000D4001F30230091009513151413088C
:100190002000D5005408C5005508C40023302300B2
:1001A00091009513151413082000D4002430230067
:1001B00091009513151413082000D5005408C700AA
:1001C0005508C60028302300910095131514130814
:1001D0002000D40029302300910095131514130832
:1001E0002000D5005408C9005508C8002D30230050
:1001F00091009513151413082000D4002E3023000D
:1002000091009513151413082000D5005408CB0055
:100210005508CA00323023009100951315141308B5
:100220002000D400333023009100951315141308D7
:100230002000D5005408CD005508CC008031512D48
:100240002908D400D501D5010B08F7008B13053020
:100250002300910020002908230093009513151511
:1002600055309600AA309600951495183529151129
:1002700077088B0420002808D400D5010B08F7006C
:100280008B130830230091002000280823009300DE
:100290009513151555309600AA30960095149518AB
:1002A0004F29151177088B0420002908D400D501A7
:1002B000D5010B08F7008B130A30230091002000B2
:1002C0002908230093009513151555309600AA3080
:1002D0009600951495186A29151177088B0420004B
:1002E0002808D400D5010B08F7008B130B3023002E
:1002F0009100200028082300930095131515553010
:100300009600AA309600951495188429151177083F
:100310008B0420002908D400D501D5010B08F70073
:100320008B130F3023009100200029082300930035
:100330009513151555309600AA309600951495180A
:100340009F29151177088B0420002808D400D501B7
:100350000B08F7008B1310302300910020002808B1
:10036000230093009513151555309600AA3096007A
:1003700095149518B929151177088B0420002908C0
:10038000D400D501D5010B08F7008B1314302300DE
:10039000910020002908230093009513151555306E
:1003A0009600AA30960095149518D429151177084F
:1003B0008B0420002808D400D5010B08F7008B130C
:1003C0001530230091002000280823009300951386
:1003D000151555309600AA30960095149518EE29FB
:1003E000151177088B0420002908D400D501D50108
:1003F0000B08F7008B131930230091002000290807
:10040000230093009513151555309600AA309600D9
:1004100095149518092A151177088B0420002808CF
:10042000D400D5010B08F7008B131A30230091007C
:1004300020002808230093009513151555309600C9
:10044000AA30960095149518232A151177088B0465
:1004500020002908D400D501D5010B08F7008B1323
:100460001E302300910020002908230093009513DB
:10047000151555309600AA309600951495183E2A09
:10048000151177088B0420002808D400D5010B082B
:10049000F7008B131F302300910020002808230051
:1004A00093009513151555309600AA3096009514B3
:1004B0009518582A151177088B0420002908D400B4
:1004C000D501D5010B08F7008B13233023009100D1
:1004D0002000290823009300951315155530960028
:1004E000AA30960095149518732A151177088B0475
:1004F00020002808D400D5010B08F7008B13243006
:10050000230091002000280823009300951315155F
:1005100055309600AA309600951495188D2A15111D
:1005200077088B0420002908D400D501D5010B08D9
:10053000F7008B13283023009100200029082300A6
:1005400093009513151555309600AA309600951412
:100550009518A82A151177088B0420002808D400C4
:10056000D5010B08F7008B132930230091002000E0
:100570002808230093009513151555309600AA30CE
:10058000960095149518C22A151177088B0420003F
:100590002908D400D501D5010B08F7008B132D30A5
:1005A00023009100200029082300930095131515BE
:1005B00055309600AA30960095149518DD2A15112D
:1005C00077088B0420002808D400D5010B08F70019
:1005D0008B132E3023009100200028082300930065
:1005E0009513151555309600AA3096009514951858
:1005F000F72A151177088B0420002908D400D501AB
:10060000D5010B08F7008B13323023009100200036
:100610002908230093009513151555309600AA302C
:10062000960095149518122B151177088B0420004D
:100630002808D400D5010B08F7008B1333302300B2
:1006400091002000280823009300951315155530BC
:100650009600AA309600951495182C2B1511770842
:100660008B0420002908D400D501D5010B08F70020
:100670008B130530230091002000290823009300EC
:100680009513151555309600AA30960095149518B7
:10069000472B151177088B0420002808D400D501BA
:1006A0000B08F7008B130830230091002000280866
:1006B000230093009513151555309600AA30960027
:1006C00095149518612B151177088B0420000800EC
:1006D0003B08D5003A08D400D601D701D801580804
:1006E000093C031CB62B5808D9005908093C031CC7
:1006F000A12B5908580203199F2B0310580D1A3EBD
:100700008400203085000318850A0008DA000131D2
:100710000008DB003F310310590D1A3E84002030E1
:1007200085000318850A01310008FA003F310008EE
:100730005A02031D9F2B7A085B020319D60AD90AB5
:10074000752B57085602031CB32B0310580D1A3E85
:100750008400203085000318850A0008D400013F7A
:10076000D5005608D700D601D80A6F2B5408F800D8
:100770005508F9008031BA2D203085003D308400C5
:1007800000080319D12B0530F800F701F70BC62B31
:10079000F80BC52B2E30F700F70BCC2BCF2B800B93
:1007A000C32B08000F138F170E168F148F150F14FD
:1007B0000F158E150E118E128031C62D540DF700B7
:1007C000F70DFC30F70521001D08833977049D00E3
:1007D0000F30F8001F08F03978049F001A30F70036
:1007E000F70BF02B00009D149D18F42B1C08200023
:1007F000D5005508F8000800D401DE237808B200BF
:100800000130D400DE237808B3000230D400DE23A8
:100810007808B4000430D400DE237808B500033033
:10082000D400DE237808B6008031D42D21008F1645
:1008300020008F1A192C0830F700D401F7172E2C3E
:10084000F7132E2C03108F1A0314D40C77172E2CA9
:100850007713F70B222C5408F8003A2C8430F71B3E
:100860002430F800F80B322C352CF71B202C771B8A
:10087000282C222C8031F22D21000F1222000F1281
:100880000830F800432C0000F817562CF81320000D
:10089000D50C220003180F16031C0F127817562CC4
:1008A0007813F80B472C542C00000F16843084006A
:1008B000840B582C0000F81B462C781B502C200071
:1008C0000800DB01DA01D9010130D8005B085702CA
:1008D000031C8C2C031D7C2C5A085602031C8C2CE8
:1008E000031D7C2C59085502031C8C2C031D7C2CE9
:1008F00058085402031C8C2C0430DC00FA30DD0054
:10090000BC23DC0B7E2C0130D8070318D90A03194D
:10091000DA0A0319DB0A662C8031292E0F138F1394
:100920008F100F100E111430D400FA30DD00BC23EC
:10093000D40B952C0F178F170E168F148F150F14BD
:100940000E158E1208008F130430D400FA30DD002B
:10095000BC23D40BA62C8F17AB01AA0108002200E0
:100960001D159D142000A40123009F15A0309B009D
:1009700001309C00A6309E0090309D0021000F1297
:1009800022000F162000A501A601A701A901A801B8
:10099000AB01AA01B80123008C018D018E018F01EA
:1009A0009001220092019101DE2C0B3440342C3452
:1009B0000034143440343A340034003404308500B8
:1009C000D530840085171200F700003A0319F82C7F
:1009D0001200F800F81BF02C0F3987001200860077
:1009E000781B1200781F12001E00F70BF22CE32C6C
:1009F00021000E1120000E1121008E1120008E11F9
:100A000021000E1220000E1221008E1220008E12E4
:100A100021000F1020000F1021008F1020008F10D8
:100A200021000F1120000F1121008F1120008F11C4
:100A300021000F1320000F1321008F1320008F13AC
:100A400021000D1120000D1121008D1220008D16A6
:100A500021001E169E161E139E131D141E109E109E
:100A60001E112F3023008C000330900000308D00C9
:100A70008F00200011108730980099019601803076
:100A8000970096019815C0308B04210011148B1625
:100A900091161508C03907389500FF3020009500E1
:100AA00056280530230091009513151413082000D3
:100AB000D40008302300910095131514130820006A
:100AC000D5005408D7005508D600560F6C2D570F87
:100AD0006C2DA901A80120213C083A02031DB92D63
:100AE0003D083B02031DB92D3E083C02031DB92DF4
:100AF0003F083D02031DB92D40083E02031DB92DDC
:100B000041083F02031DB92D42084002031DB92DC3
:100B100043084102031DB92D44084202031DB92DAB
:100B200045084302031DB92D46084402031DB92D93
:100B300047084502031DB92D48084602031DB92D7B
:100B400049084702031DB92D4A084802031DB92D63
:100B50004B084902031DB92D4C084A02031DB92D4B
:100B60004D084B02031DB92D3B08A9003A08A80007
:100B7000BE2D682B7908A9007808A8000230D4009F
:100B8000FA30DD00BC23D40BC02DD22B8E30AC004C
:100B90002508AD002608AE002708AF00D5012908BA
:100BA000B0002808B100FC2B26081E3C031DDE2DDA
:100BB0002708013C031CDE2D0F170E15D101D001B3
:100BC000CF01CE01D108031DFE2DD008031DFE2D3F
:100BD000CF08031DFE2D4E08633C031CFE2D8F1A0B
:100BE000F52D162C7808B700FE2D0130CE0703181E
:100BF000CF0A0319D00A0319D10AE22D3708283C7D
:100C0000031D182EB701AB01AA01D20152080A3CFC
:100C1000031C172E0C305207840020308500031867
:100C2000850A0008D400D5003C24D20A062E482E9E
:100C30003708BC3C031D2B2EB701AB01AA018E1651
:100C4000CB30D5003C24D701D601D5012D30D400BE
:100C5000612C8E12482E3708273C031D342EB70115
:100C6000AB01AA018E24482E2B080D3C0318412EFF
:100C7000FF3A031D3F2E2A080F3C0318412EA324E0
:100C8000482E3708EE3C031D482EA901A80120215B
:100C9000380B652E20218F10AA30D5003C242B085C
:100CA0000D3C03185C2EFF3A031D5A2E2A080F3CF8
:100CB00003185C2EA324602E3708273C03194C2E02
:0E0CC000B701AB01AA018E24B801C62D630056
:020000040001F9
:04000E00C239231EB2
:00000001FF
;PIC16F1789
;CRC=39AC  CREATED="14-jun.-21 14:03"
