:0600000098310028000009
:0800080083018031200077081C
:10001000A0007808A1007908A2007A08A300850151
:1000200091308400801E1628911A1F282008F7009E
:100030002108F8002208F9002308FA00090080319D
:100040002128253024078400203085000318850AE4
:10005000911E282823001908800020002408A500EC
:10006000013024072500B9003908BA001130BB005F
:100070003B08F8013A02031840283A08F7004C28D8
:10008000F7010830BC00BA0DF70D3B0877020318E2
:10009000F700F80DBC0B432877082000A40091124C
:1000A0008031162821008F1222008F1621000E1198
:1000B00022000E1521008F1022008F1021000F1139
:1000C00022000F1121008F1122008F1121001E1616
:1000D0009E161E139E131D141E109E101E112030FE
:1000E00023008C000130900000308D008F00C03064
:1000F0008B0421009116983120007C282130850046
:10010000203084000008031993280530F800F70117
:10011000F70B8828F80B87282E30F700F70B8E286E
:100120009128800B8528080022008F10643023005E
:10013000D00020007E2022000F1164302300D00068
:1001400020007E2022008F1164302300D000200088
:100150007E2008001030F80021001D088339780443
:100160009D000F30F8001F08F03978049F000D3013
:10017000F700F70BB9289D149D18BC281C08FA003D
:100180001B08F8001C08F900200008008318CC2880
:10019000213085002C308400F701F801F901FA01C3
:1001A0002300DC01DD01DE01DF01570856045504A0
:1001B000540403190B292030E0000310D00DD10D99
:1001C000D20DD30DDC0DDD0DDE0DDF0D57085F0206
:1001D000031DF42856085E02031DF42855085D022D
:1001E000031DF42854085C02031C05295408DC0292
:1001F0005508031C550FDD025608031C560FDE027E
:100200005708031C570FDF020314F70DF80DF90D03
:10021000FA0DE00BDD285C0880005D08813F5E0878
:10022000823F5F08833F200008002300A601A5014C
:10023000A401A301A7012708133C031C2F292000B8
:10024000AA2078082300A3077908A43D0030A53D23
:10025000A63D0D30F700F70B2B29A70A1B298310A9
:100260002608D3002508D2002408D1002308D00096
:10027000D701D601D5011430D4002000C62078085B
:100280002300A9007708A8002808F8002908F90029
:100290009831200092282300AA08031D712920000C
:1002A0003A082200C70020003B082200C8002000B6
:1002B0003C082200C90020003D082200CA0020009E
:1002C0003E082200CB0020003F082200CC00200086
:1002D00040082200CD00200041082200CE009029D5
:1002E00023002A0B7F2950302200C700C801C90112
:1002F000CA01CB01CC01CD01CE01902923002A08EF
:10030000023C031D912959302200C700C801230077
:100310002B082200C900CA01CB01CC01CD01CE01BE
:100320002300AC012C080F3C031CC729C3302C0749
:100330008400203085000318850A0008AD002D08D0
:10034000AE0021008D1022008D100830F800A82981
:100350000000F817BB29F8132300AE0C2200031885
:100360008D14031C8D107817BB297813F80BAC295A
:10037000B92900008D1484308400840BBD2900004D
:10038000F81BAB29781BB5292300AC0A9229200061
:1003900008002200EE08031D252A6D08013C031CFD
:1003A000252A031DDD296C08863C031C252A031D14
:1003B000DD296B089F3C031C252A20000D191B2AF0
:1003C000D33071078400203085000318850A0508A2
:1003D0002300AF000408AE0021000D1520000D1908
:1003E000EF290830F7002300B001F717072AF713A9
:1003F000072A031020000D1903142300B00C7717EF
:10040000072A7713F70BF9293008F800132A8430EC
:10041000F71B2430F800F80B0B2A0E2AF71BF729DC
:10042000771B012AF9292F0885002E0884007808F7
:100430008000F10A200001302200EB070318EC0ACB
:100440000319ED0A0319EE0ACA29F101EE01ED01C3
:10045000EC01EB012000080022008F106430230023
:10046000D00020007E2022000F1564302300D00031
:1004700020007E2022008F1164302300D000200055
:100480007E20080022008F15B4302300D000200009
:100490007E2022008F113C302300D00020007E20DF
:1004A000080022008F153C302300D00020007E2061
:1004B00022008F113C302300D00020007E20080055
:1004C00022008F11B4302300D00020007E200800CD
:1004D00042225122512251226022080051225122EF
:1004E000602208005122422251226022080042224A
:1004F00051225122602208005122512251226022B1
:100500000800512251225122512242226022080029
:1005100051224222422242226022080042224222EA
:10052000512260220800422251225122512251229E
:100530006022080042225122422242226022080008
:1005400042224222602208004222512251224222AB
:100550006022080023006208083C0319B32AE40063
:10056000E10DE40BB02A21000F178F130F122200A8
:100570000F1223006208E400E11BC12A22008F133E
:100580002300E11FC62A22008F172300E10D22005D
:100590000F16F80D20000F1F78100F1B7814220083
:1005A0000F122300E40BBC2A200008002300E30103
:1005B000E401E501F801F901FA015B08DC00E4015E
:1005C000E501F801F901FA015A08DD00E501F80139
:1005D000F901FA015908DE00F801F901FA01580899
:1005E000DF0022008F120230F700F70BF52A00001F
:1005F00013302300E1000830E2002000AA2223008B
:100600005C08E1000830E2002000AA2223005D0817
:10061000E1000830E2002000AA2223005E08E10089
:100620000830E2002000AA2223005F08E100083021
:10063000E2002000AA2201302300E1000830E2009D
:100640002000AA2278082300E00022008F16230051
:100650006008F800200008002300A6080319342BC6
:100660002608303C031D3D2B20004222422242221C
:10067000422242226022E32C2300260B402B442BF3
:100680002608313C031D4D2B2000512242224222DC
:10069000422242226022E32C23002608023C031956
:1006A000552B2608323C031D5E2B2000512251227F
:1006B0004222422242226022E32C23002608033CED
:1006C0000319662B2608333C031D6F2B2000512293
:1006D00051225122422242226022E32C230026088A
:1006E000043C0319772B2608343C031D7B2B200088
:1006F0008122E32C23002608053C0319832B2608BE
:10070000353C031D8C2B20005122512251225122B5
:1007100051226022E32C23002608063C0319942B67
:100720002608363C031D982B20009322E32C23003F
:100730002608073C0319A02B2608373C031DA92BCC
:100740002000422242225122512251226022E32CD7
:1007500023002608083C0319B12B2608383C031D4A
:10076000BA2B2000422242224222512251226022F0
:10077000E32C23002608093C0319C22B2608393C28
:10078000031DCB2B20004222422242224222512230
:100790006022E32C230026080A3C0319D32B2608E9
:1007A000613C031DD92B2000512242226022E32C00
:1007B000230026080B3C0319E12B2608623C031D8D
:1007C000E52B20006822E32C230026080C3C0319AB
:1007D000ED2B2608633C031DF52B200042225122FD
:1007E000422251226022E32C230026080D3C0319EB
:1007F000FD2B2608643C031D012C20007722E32CEE
:10080000230026080E3C0319092C2608653C031D0D
:100810000E2C200051226022E32C230026080F3CDE
:100820000319162C2608663C031D1E2C200051229D
:100830005122422251226022E32C23002608673CE9
:10084000031D262C20008E22E32C23002608683C62
:10085000031D322C200051225122512251226022AC
:10086000E32C23002608693C031D3A2C20006E224D
:10087000E32C230026086A3C031D422C200088221A
:10088000E32C230026086B3C031D4D2C2000422244
:10089000512242226022E32C230026086C3C031DD7
:1008A000592C200051224222512251226022E32C55
:1008B000230026086D3C031D612C2000A022E32CA0
:1008C000230026086E3C031D6B2C2000422251227F
:1008D0006022E32C230026086F3C031D762C2000A9
:1008E0004222422242226022E32C23002608703C4E
:1008F000031D822C200051224222422251226022DA
:10090000E32C23002608713C031D8E2C200042227C
:100910004222512242226022E32C23002608723C0C
:10092000031D962C20007222E32C23002608733C22
:10093000031D9E2C20007C22E32C23002608743CFF
:10094000031DA72C200042226022E32C230026084E
:10095000753C031DB22C20005122512242226022FC
:10096000E32C23002608763C031DBE2C20005122D8
:100970005122512242226022E32C23002608773C98
:10098000031DC92C20005122422242226022E32C66
:1009900023002608783C031DD12C2000A422E32C40
:1009A00023002608793C031DD92C20009A22E32C31
:1009B000230026087A3C031DE42C20004222422218
:1009C000512251226022230020000800023023001F
:1009D000A300FA30D00020007E202300A30BE92CD6
:1009E000200068226E22722277227C22812202302D
:1009F0002300A300FA30D00020007E202300A30BA8
:100A0000FA2C200088228E2293229A22A022A4224D
:100A100002302300A300FA30D00020007E20230003
:100A2000A30B0B2DDB01DA01D901D8012000D6225E
:100A3000780F5A2D73302300A60020002C23693034
:100A40002300A60020002C23270E2300A400A501CC
:100A50000F30A405A405A5012408A60020002C231E
:100A600027082300A400A5010F30A405A501240830
:100A7000A60020002C23270C2300A5002000260C14
:100A80002300A400A50CA40CA50CA40CA50CA40C7C
:100A90000F30A505A405A5012408A60020002C23DD
:100AA00026080F392300A400A5012408A600200071
:100AB0002C23AE2D2300DB01DA01D9010130D8004F
:100AC0002000D62278082300A400A60020002C23B2
:100AD0002300DB01DA01D9010230D8002000D62240
:100AE00078082300A400A60020002C232300DB01AB
:100AF000DA01D9010330D8002000D622780823007B
:100B0000A400A60020002C232300DB01DA01D90178
:100B10000430D8002000D62278082300A400A600C4
:100B200020002C232300DB01DA01D9010530D80095
:100B30002000D62278082300A400A60020002C2341
:100B40002300DB01DA01D9010630D8002000D622CB
:100B500078082300A400A60020002C2302302300E4
:100B6000A300FA30D00020007E202300A30BB12D7B
:100B700022005408503C031DEF2D5508F039F700B2
:100B8000770EF2000F30F20555080F39F3005608C2
:100B9000F039F700770EF4000F30F40556080F39DE
:100BA000F5005708F039F700770EF6000F30F6051C
:100BB00057080F39FB005808F039F700770EFC0092
:100BC0000F30FC0558080F39FD005908F039F700BF
:100BD000770EFE000F30FE0559080F39EF0072083E
:100BE0002300A60020002C2373082300A600200069
:100BF0002C2374082300A60020002C237508230052
:100C0000A60020002C2376082300A60020002C2319
:100C10007B082300A60020002C237C082300A600CC
:100C200020002C237D082300A60020002C237E0812
:100C30002300A60020002C2322006F082300A6001A
:100C400020002C2308002300AB012B080D3C031CC3
:100C5000332E16302B078400203085000318850AB8
:100C60008001AB0A252E2000C40108002C22E624B6
:100C7000942023269831A42822008F124230F700B6
:100C8000F70B402E000006302300E1000830E200A0
:100C90002000AA2222008F16200008002300C50190
:100CA000C601C701F801F901FA013B08BC00C60101
:100CB000C701F801F901FA013A08BD00C701F801BE
:100CC000F901FA013908BE00F801F901FA01380802
:100CD000BF0020003C2622008F120230F700F70BE5
:100CE0006F2E0000DC302300E1000830E20020001D
:100CF000AA2223003C08E1000830E2002000AA22DA
:100D000023003D08E1000830E2002000AA22230071
:100D10003E08E1000830E2002000AA2223003F083C
:100D2000E1000830E2002000AA220230F700F70BB1
:100D3000972E000022008F160C302300C300FA30DB
:100D4000D00020007E202300C30B9F2E200008002F
:100D500023006208083C0319B12EE400E10DE40B06
:100D6000AE2E21000E168E128E1122008E1123003F
:100D70006208E400E11BBF2E22008E122300E11F57
:100D8000C42E22008E162300E10D22008E15F80DD0
:100D900020000E1E78100E1A781422008E112300E7
:100DA000E40BBA2E200008002300E301E401E50172
:100DB000F801F901FA015B08DC00E401E501F80142
:100DC000F901FA015A08DD00E501F801F901FA011B
:100DD0005908DE00F801F901FA015808DF00220085
:100DE0000E110230F700F70BF32E00001330230032
:100DF000E1000830E2002000A82623005C08E100A2
:100E00000830E2002000A82623005D08E100083039
:100E1000E2002000A82623005E08E1000830E2007E
:100E20002000A82623005F08E1000830E20020002F
:100E3000A82602302300E1000830E2002000A826A6
:100E400078082300E00022000E1523006008F80057
:100E5000200008002300CA01CB01CC01F801F901F0
:100E6000FA014008C200CB01CC01F801F901FA01F6
:100E70003F08C300CC01F801F901FA013E08C400A3
:100E8000F801F901FA013D08C50020003C262200C6
:100E90008F120230F700F70B4B2F000012302300A7
:100EA000E1000830E2002000AA2223004208E1000D
:100EB0000830E2002000AA2223004308E1000830A5
:100EC000E2002000AA2223004408E1000830E200EA
:100ED0002000AA2223004508E1000830E20020009B
:100EE000AA2223004108E1000830E2002000AA22E3
:100EF00022008F162000080023002F08BB002E08B8
:100F0000BA002D08B9002C08B80020004E26230096
:100F1000B701B601B501B40137083302031CDC2F59
:100F2000031DA22F36083202031CDC2F031DA22F43
:100F300035083102031CDC2F031DA22F30083402B8
:100F40000318DC2F34082C07B80035082D3DB900F4
:100F500036082E3DBA0037082F3DBB0034082C0759
:100F6000BC0035082D3DBD0036082E3DBE003708BB
:100F70002F3DBF00DB003E08DA003D08D9003C08E9
:100F8000D8002000D42678082300BC003B08C0000D
:100F90003A08BF003908BE003808BD003C08C1004F
:100FA00020002A2701302300B4070318B50A0319CB
:100FB000B60A0319B70A8C2F2000080022008F14EC
:100FC00064302300D00020007E2022000F11643006
:100FD0002300D00020007E2022008F1164302300E7
:100FE000D00020007E200800111EF42F23009A005C
:040FF00020000800D5
:1010000020302300E500E101E201E301E4015B0897
:10101000FA005A08F9005908F8005808F7000310B8
:10102000771C20285C08E1075D0803185D0FE207C4
:101030005E0803185E0FE3075F0803185F0FE407FD
:10104000E40CE30CE20CE10CFA0CF90CF80CF70CD4
:10105000E50B0F28200008002300D601D501FF3042
:10106000D400D300DA01D9018430D8000830D70089
:10107000E301E201E101E001E308031DCE28E208FB
:10108000031DCE28E108031DCE2852086002031874
:10109000CE2834306007F8002130613DFA0078082E
:1010A0002500AC007A08AD002300500860078400DA
:1010B0005108613D850000082500AE002D0885001F
:1010C0002C0884002E0880002300DF01DE01DD01F2
:1010D000DC01DF08031DC528DE08031DC528DD0867
:1010E000031DC5285C08073C031CC5283430600775
:1010F00084002130613D8500000853062500AC00C6
:10110000230054082500AD00230055082500AE003B
:10111000230056082500AF002C0801392300DB000E
:101120000310D60CD50CD40CD30C5B0B9F2857089E
:10113000D3065808D4065908D5065A08D6063430BE
:101140006007F8002130613DFA0078082500AC0006
:101150007A08AD0034302300600784002130613DFF
:1011600085000310000C2500AE002D0885002C081A
:1011700084002E08800001302300DC070318DD0AFC
:101180000319DE0A0319DF0A69280130E007031892
:10119000E10A0319E20A0319E30A3C28FF30D306E7
:1011A000D4065308F8005408F90020000800230072
:1011B000B308031D0C29B408031D0C29B508031D31
:1011C0000C29B608031D0C2983103208D3003108FE
:1011D000D2003008D1002F08D000D701D601D501A8
:1011E0005130D40080312000C62088317A08230095
:1011F000D3007908D2007808D1007708D0000130F8
:101200005007B8000030513DB9000030523DBA00DF
:101210000030533DBB002029AF08031D2029B00832
:10122000031D2029B108031D2029B208031D202910
:101230003608BB003508BA003408B9003308B800D6
:10124000BF01BE01BD010130BC003F083B02031CD1
:10125000A12A031D3B293E083A02031CA12A031DB3
:101260003B293D083902031CA12A031D3B293C08E8
:101270003802031CA12A4A302100A6004730A700EB
:101280003630A8005930A9004230AA005730AB00D0
:101290003030AC004A30AD004730AE003630AF00E1
:1012A0005930B0004D30B1005830B2003030B3008A
:1012B0003E30B400F030B500FF30B600F030B7007B
:1012C000FF30B80023003E082100B90023003D088C
:1012D0002100BA0023003C082100BB002300370B8B
:1012E000EA29C301C201C1011630C000C308031DB1
:1012F000EA29C208031DEA29C108031DEA2940089A
:10130000663C031CEA2956304007D0002030413D9E
:10131000D10001303C02F70000303D3BF8000030C6
:101320003E3BF90000303F3BFA00D5007908D4007D
:101330007808D3007708D2000508D7000408D60043
:10134000DB01DA01D9015130D8005508DF0054081B
:10135000DE005308DD005208DC00200000202300DE
:10136000570885005608840077082B07D2007808B4
:101370002C3DD30079082D3DD4007A082E3DD500B0
:101380004008D2074108D33D4208D43D4308D53D2B
:101390001630D2020030D33BD43BD53B5508DB009E
:1013A0005408DA005308D9005208D80080312000D0
:1013B000D62288312300510885005008840078081F
:1013C00080000130C0070318C10A0319C20A0319BB
:1013D000C30A7629B708031D662AC701C601C501DD
:1013E0001630C400C708031D662AC608031D662AF6
:1013F000C508031D662A4408663C031C662A56304D
:101400004407D0002030453DD10001303C02F700B8
:1014100000303D3BF80000303E3BF90000303F3BE0
:10142000FA00D5007908D4007808D3007708D200F4
:101430000508D7000408D600DB01DA01D9015130D4
:10144000D8005508DF005408DE005308DD005208BC
:10145000DC00200000202300570885005608840087
:1014600077082B07D20078082C3DD30079082D3D52
:10147000D4007A082E3DD5004408D2074508D33D54
:101480004608D43D4708D53D1630D2020030D33B44
:10149000D43BD53B5508DB005408DA005308D9008B
:1014A0005208D80080312000D4268831230051080A
:1014B000850050088400780880000130C4070318B4
:1014C000C50A0319C60A0319C70AF2292030D10038
:1014D0005630D0006730D20020002C20790823003D
:1014E000C9007808C80048082200BD002300490848
:1014F0002200BE002300CA014A08683C031C912A4E
:1015000056304A078400203085000318850A0008F9
:10151000D000500880312000F42788312300CA0A07
:101520007C2ADC30D000803120007E2088310130E0
:101530002300BC070318BD0A0319BE0A0319BF0A1A
:101540002529200008002300A8012808103C031CBE
:10155000B32A253028078400203085000318850A27
:101560008001A80AA52A200008004508423C031D66
:10157000DE2A2300A30123080D3C031CDB2A1630BE
:101580002307F8002030FA000318FA0A7808A800A8
:101590007A08A9002530230784002030850003182D
:1015A000850A0008AA0029088500280884002A085E
:1015B0008000A30ABB2A2000A401A3224608423CC3
:1015C000031D082B2300A40124080D3C031C052B3C
:1015D00016302407F8002030FA000318FA0A7808B9
:1015E000A8007A08A90001302407253E8400203095
:1015F00085000318850A0008AA0029088500280824
:1016000084002A088000A40AE42A2000A401A3225E
:101610004708423C031D322B2300A50125080D3C41
:10162000031C2F2B16302507F8002030FA00031872
:10163000FA0A7808A8007A08A90002302507253E92
:101640008400203085000318850A0008AA002908B4
:101650008500280884002A088000A50A0E2B200097
:10166000A401A3224808423C031D5C2B2300A601D1
:1016700026080D3C031C592B16302607F800203095
:10168000FA000318FA0A7808A8007A08A9000330BB
:101690002607253E8400203085000318850A0008AF
:1016A000AA0029088500280884002A088000A60AC4
:1016B000382B2000A401A3224908423C031D862B9D
:1016C0002300A70127080D3C031C832B1630270796
:1016D000F8002030FA000318FA0A7808A8007A08FF
:1016E000A90004302707253E840020308500031818
:1016F000850A0008AA0029088500280884002A080D
:101700008000A70A622B2000A401A322203023001E
:10171000D1001630D0000C30D20020002C207908E7
:101720002200C0007808BF00200043082200C20049
:10173000200042082200C10020003708F000983144
:101740005D2A4A30D6004730D7003630D8005930AD
:10175000D9004230DA005730DB003030DC004A304C
:10176000DD004730DE003630DF005930E0004D301C
:10177000E1005830E2003030E3003E30E400F03069
:10178000E500AA30E6000330E7003708E800380833
:10179000E9003908EA003A08EB003B08EC003C0895
:1017A000ED003D08EE003E08EF003F082100A000DC
:1017B000200040082100A100200041082100A200D3
:1017C000AA30A30020302300D1003630D0001E30D4
:1017D000D20020002C2079082300AC007808AB0050
:1017E0002B082100A40023002C082100A5008F1045
:1017F00022008F1408302300AE00FA30D000803170
:1018000020007E2088312300AE0BFD2BAD012D087A
:101810001F3C031C1C2C36302D0784002030850013
:101820000318850A0008AE002E0880312000F42736
:1018300088312300AD0A072C0230AE00FA30D00008
:10184000803120007E2088312300AE0B1E2C210029
:101850008F1022008F1020000800A1232300A30175
:101860002308593C031C422C5030A400FA30D0000D
:10187000803120007E2088312300A40B362C6400A8
:10188000A30A302C803120002326883198316C2A1D
:101890004A30D6004730D7003630D8005930D9000A
:1018A0004230DA005730DB003030DC004A30DD00F7
:1018B0004730DE003630DF005930E0004D30E100C7
:1018C0005830E2003030E3003E30E400F030E50014
:1018D000AA30E6000330E7003708E8003808E900DE
:1018E0006930EA00EB00EC00ED00EE00EF002100B3
:1018F000A000A100A200AA30A30020302300D10044
:101900003630D0001E30D20020002C207908230071
:10191000AB007808AA002A082100A40023002B08A5
:101920002100A5008F1022008F1408302300AD0085
:10193000FA30D000803120007E2088312300AD0BAA
:10194000982CAC012C081F3C031CB72C36302C07FC
:101950008400203085000318850A0008AD002D089A
:1019600080312000F42788312300AC0AA22C0230F9
:10197000AD00FA30D000803120007E208831230075
:10198000AD0BB92C21008F1022008F102000080011
:1019900041082300A3002308783C031CE62C200008
:1019A000A1232300A401230824020318E52C1430EA
:1019B000A500FA30D000803120007E20883123003D
:1019C000A50BD92C6400A40AD32CE92C20004824B0
:1019D000230080312000232688319831852A390858
:1019E000103C0319F72C3908113C031D762D3A08D9
:1019F0002300A60020003B082300A50020003C088F
:101A00002300A40020003D082300A30020003E087E
:101A10002300AA0020003F082300A900200040085E
:101A20002300A800200041082300A70080312000E7
:101A3000DE27883104302300AB00FA30D00080313B
:101A400020007E2088312300AB0B1D2D200039089B
:101A5000103C031D472D23002608AE002508AD00CD
:101A60002408AC002308AB00B201B101B001AF0102
:101A70002A08B6002908B5002808B4002708B300D2
:101A80000130B7002000D720803123268831390863
:101A9000113C031D662D23002608AE002508AD006D
:101AA0002408AC002308AB00B201B101B001AF01C2
:101AB0002A08B6002908B5002808B4002708B30092
:101AC000B7012000D720803123268831023023003F
:101AD000AB00FA30D000803120007E208831230016
:101AE000AB0B692D80312000942088319831882AF1
:101AF0003908133C0319802D3908143C031DFF2DB0
:101B00003A082300A60020003B082300A50020007F
:101B10003C082300A40020003D082300A30020006F
:101B20003E082300AA0020003F082300A90020004F
:101B300040082300A800200041082300A7008031AE
:101B40002000DE27883104302300AB00FA30D000BB
:101B5000803120007E2088312300AB0BA62D200091
:101B60003908133C031DD02D23002608AE0025089C
:101B7000AD002408AC002308AB002A08B2002908F5
:101B8000B1002808B0002708AF00B601B501B401C4
:101B9000B3010130B7002000D720803123268831DF
:101BA0003908143C031DEF2D23002608AE0025083C
:101BB000AD002408AC002308AB002A08B2002908B5
:101BC000B1002808B0002708AF00B601B501B40184
:101BD000B301B7012000D72080312326883102309D
:101BE0002300AB00FA30D000803120007E20883105
:101BF0002300AB0BF22D80312000942088319831E6
:101C00008B2A3A082300A70020003B082300A600E7
:101C100020003C082300A50020003D082300A4006C
:101C200020003E082300AB0020003F082300AA004C
:101C3000200040082300A900200041082300A8003C
:101C40004A302100A6004730A7003630A80059309E
:101C5000A9004230AA005730AB003030AC004A3007
:101C6000AD004730AE003630AF005930B0004D30D7
:101C7000B1005830B2003030B3003E30B400F03024
:101C8000B500FF30B600F030B700FF30B8002300D9
:101C90002A082100B900230029082100BA002300E6
:101CA00028082100BB002300230BD32EAF01AE0177
:101CB000AD011630AC00AF08031DD32EAE08031DD6
:101CC000D32EAD08031DD32E2C08663C031CD32E47
:101CD00056302C07F80020302D3DFA007808B80067
:101CE0007A08B90001302802F7000030293BF800DB
:101CF00000302A3BF90000302B3BFA00BD00790888
:101D0000BC007808BB007708BA000508BF000408CB
:101D1000BE00DB01DA01D9015130D8003D08DF00F7
:101D20003C08DE003B08DD003A08DC002000002013
:101D300023003F0885003E08840077082407BA0086
:101D40007808253DBB007908263DBC007A08273D70
:101D5000BD002C08BA072D08BB3D2E08BC3D2F083E
:101D6000BD3D1630BA020030BB3BBC3BBD3B3D081D
:101D7000DB003C08DA003B08D9003A08D800803183
:101D80002000D622883123003908850038088400D5
:101D9000780880000130AC070318AD0A0319AE0AB9
:101DA0000319AF0A5B2EA308031D532FB301B20121
:101DB000B1011630B000B308031D532FB208031D44
:101DC000532FB108031D532F3008663C031C532FBB
:101DD00056303007F8002030313DFA007808B8005E
:101DE0007A08B90001302802F7000030293BF800DA
:101DF00000302A3BF90000302B3BFA00BD00790887
:101E0000BC007808BB007708BA000508BF000408CA
:101E1000BE00DB01DA01D9015130D8003D08DF00F6
:101E20003C08DE003B08DD003A08DC002000002012
:101E300023003F0885003E08840077082407BA0085
:101E40007808253DBB007908263DBC007A08273D6F
:101E5000BD003008BA073108BB3D3208BC3D33082D
:101E6000BD3D1630BA020030BB3BBC3BBD3B3D081C
:101E7000DB003C08DA003B08D9003A08D800803182
:101E80002000D426883123003908850038088400D2
:101E9000780880000130B0070318B10A0319B20AAC
:101EA0000319B30ADB2E2030D1005630D000673042
:101EB000D20020002C2079082300B5007808B40057
:101EC00034082200BD00230035082200BE00230094
:101ED000B6013608683C031C7E2F56303607840056
:101EE000203085000318850A0008B80038088031C2
:101EF0002000F42788312300B60A692FC830D000AB
:101F0000803120007E20883108003908153C0319F3
:101F10008D2F3908163C031DC42F8031DE278831F0
:101F200004302300A300FA30D000803120007E204E
:101F300088312300A30B932F20003908153C031D83
:101F4000A92F01302300A300200001268031232681
:101F500088313908163C031DB42F2300A30120004B
:101F6000012680312326883102302300A300FA3075
:101F7000D000803120007E2088312300A30BB72FB2
:101F8000803120009420883198318E2A3908423CD3
:101F9000031DF52F410BCD2FD52F4108053C03190B
:101FA000D52F41080A3C031DF52F02302300AA005B
:101FB000200041082300AB00803120004B218831F4
:101FC0008031C921883122005F08663C031DEB2F58
:101FD0002000A1232200DF08031DF12F2000482448
:0E1FE000220080312000232688319831A62A65
:102000003908353C031D75283A082300A600200036
:102010003B082300A50020003C082300A40020006A
:102020003D082300A300200040082300A800200052
:1020300041082300A7000230AA0020003E08230028
:10204000AB00803120004B2190318031C92190318B
:1020500008302300A900FA30D000803120007E2013
:1020600090312300A90B2B2822005F08663C031D3A
:10207000712880312000DE27903104302300A90030
:10208000FA30D000803120007E2090312300A90B4F
:1020900040282608AE002508AD002408AC0023081F
:1020A000AB00B201B101B001AF01B601B501280822
:1020B000B4002708B300B70188312000D720903141
:1020C00002302300A900FA30D000803120007E20A9
:1020D00090312300A90B6328803120009420903197
:1020E000220080312000232690319831912A01303E
:1020F00023002C02C8002B08C9004808CA00F701B9
:10210000F801490803104A18F707F70CF80CCA1829
:10211000F707F70CF80C4A19F707F70CF80CCA196F
:10212000F707F70CF80C4A1AF707F70CF80CCA1A5D
:10213000F707F70CF80C4A1BF707F70CF80CCA1B4B
:10214000F707F70CF80CB101B001AF017808AE0049
:10215000DB01DA01D9015130D8003108DF00300845
:10216000DE002F08DD002E08DC0088312000002072
:102170009031770823002707B2007808283DB30084
:102180007908293DB4007A082A3DB500B901B801A3
:10219000B7010130B600B908031D4D2AB808031D68
:1021A0004D2AB708031D4D2A36082B02031C4D2A61
:1021B0004A302100A6004730A7003630A800593029
:1021C000A9004230AA005730AB003030AC004A3092
:1021D000AD004730AE003630AF005930B0004D3062
:1021E000B1005830B2003030B3003E30B400F030AF
:1021F000B500FF30B600F030B700FF30B800230064
:1022000038082100B900230037082100BA00230054
:1022100036082100BB0023002D0B8E29BD01BC0117
:10222000BB011630BA00BD08031D8D29BC08031D73
:102230008D29BB08031D8D293A08663C031C8D2996
:1022400056303A07F80020303B3DFA007808C800C5
:102250007A08C90001303602F7000030373BF80039
:102260000030383BF9000030393BFA00CD007908E6
:10227000CC007808CB007708CA000508CF00040816
:10228000CE00DB01DA01D9015130D8004D08DF0062
:102290004C08DE004B08DD004A08DC0088312000D5
:1022A0000020903123004F0885004E0884007708F5
:1022B0003207CA007808333DCB007908343DCC00A2
:1022C0007A08353DCD003A08CA073B08CB3D3C08AB
:1022D000CC3D3D08CD3D1630CA020030CB3BCC3B57
:1022E000CD3B4D08DB004C08DA004B08D9004A080A
:1022F000D80080312000D622903123004908850083
:1023000048088400780880000130BA070318BB0A27
:102310000319BC0A0319BD0A1329102AAD08031DAD
:10232000102AC101C001BF011630BE00C108031D43
:10233000102AC008031D102ABF08031D102A3E08DA
:10234000663C031C102A56303E07F80020303F3D03
:10235000FA007808C8007A08C90001303602F70090
:102360000030373BF8000030383BF9000030393B93
:10237000FA00CD007908CC007808CB007708CA00B5
:102380000508CF000408CE00DB01DA01D901513085
:10239000D8004D08DF004C08DE004B08DD004A087D
:1023A000DC00883120000020903123004F08850098
:1023B0004E08840077083207CA007808333DCB0006
:1023C0007908343DCC007A08353DCD003E08CA0777
:1023D0003F08CB3D4008CC3D4108CD3D1630CA02F8
:1023E0000030CB3BCC3BCD3B4D08DB004C08DA004A
:1023F0004B08D9004A08D80080312000D4269031FB
:1024000023004908850048088400780880000130CE
:10241000BE070318BF0A0319C00A0319C10A962987
:102420002030D1005630D0006730D20088312000F3
:102430002C20903179082300C3007808C20042089C
:102440002200BD00230043082200BE002300C40177
:102450004408683C031C3D2A563044078400203061
:1024600085000318850A0008C8004808803120004C
:10247000F42790312300C40A282AC830D0008031C4
:1024800020007E20903101302300B6070318B70AE0
:102490000319B80A0319B90ACB2820000800390823
:1024A000443C031DA12A3A082300A60020003B0853
:1024B0002300A50020003C082300A40020003D08C4
:1024C0002300A3000230AA0020003E082300AB0036
:1024D000803120004B2190318031DE279031043053
:1024E0002300A700FA30D000803120007E209031F8
:1024F0002300A70B722A2608AA002508A900240891
:10250000A8002308A700200041082300AB002000FA
:1025100040082300AC00AD01200077208031232645
:10252000903102302300A700FA30D0008031200023
:102530007E2090312300A70B942A80312000942024
:1025400090319831942A3908403C0319AB2A390854
:10255000413C031D132B3A082300A60020003B0832
:102560002300A50020003C082300A40020003D0813
:102570002300A30080312000DE27903104302300A7
:10258000A700FA30D000803120007E209031230057
:10259000A70BC12A20003908403C031DE82A23006C
:1025A0002608AA002508A9002408A8002308A700D7
:1025B000200041082300AB00200040082300AC00AD
:1025C0000130AD0020007720803123269031032B8D
:1025D0003908413C031D032B23002608AA002508C7
:1025E000A9002408A8002308A70020004108230010
:1025F000AB00200040082300AC00AD012000772094
:1026000080312326903102302300A700FA30D00019
:10261000803120007E2090312300A70B062B8031D3
:102620002000942090319831972A3908303C031DBE
:10263000FD2B4A30D6004730D7003630D80059300D
:10264000D9004230DA005730DB003030DC004A304D
:10265000DD004730DE003630DF005930E0004D301D
:10266000E1005830E2003030E3003E30E400F0306A
:10267000E500AA30E6000330E7003708E800380834
:10268000E9001430F80021001D08833978049D000A
:102690000F30F8001F08F03978049F000D30F70064
:1026A000F70B502B9D149D18532B1C08FA001B0888
:1026B000F8001C08F90079082300A4007808A3009A
:1026C000A801A701A601A501A9012908633C031CD3
:1026D0007B2B80312000AA20903178082300A507A9
:1026E0007908A63D0030A73DA83D8530F700F70BDF
:1026F000772BA90A652B83102808D3002708D2005E
:102700002608D1002508D000D701D601D5016430B4
:10271000D40080312000C620903178082300AB001F
:102720007708AA0020003908EA00DD30EB0023001A
:102730002B082000EC0023002A082000ED00DD30EB
:10274000EE00EF00230024082100A000230023084E
:102750002100A100DD30A200AA30A3002030230018
:10276000D1003630D0001E30D200883120002C201D
:10277000903179082300AD007808AC002C082100C6
:10278000A40023002D082100A5008F1022008F1423
:1027900008302300AF00FA30D000803120007E20C6
:1027A00090312300AF0BCB2BAE012E081F3C031C36
:1027B000EA2B36302E078400203085000318850A66
:1027C0000008AF002F0880312000F427903123004B
:1027D000AE0AD52B0230AF00FA30D0008031200095
:1027E0007E2090312300AF0BEC2B21008F102200B4
:1027F0008F10803120002326903198319A2A390891
:10280000273C031DBE2C3A082300A60020003B08ED
:102810002300A50020003C082300A40020003D0860
:102820002300A300200040082300A8002000410846
:102830002300A7000230AA0020003E082300AB00BE
:10284000803120004B2190318031C921903122000C
:102850005F08663C031D972C23002808AB0027085F
:10286000AA00AD015130AC001030AE00F701FA0102
:10287000AB0CAA0C031C422C2C08F7070318FA0A0D
:102880002D08FA07FA0CF70CF90CF80CAE0B382CE3
:102890007908AB007808AA002608AF002508AE002A
:1028A0002408AD002308AC00B301B2012B08B1002D
:1028B0002A08B000803120007C2790318031DE274B
:1028C000903104302300AA00FA30D000803120007B
:1028D0007E2090312300AA0B642C2608AE00250828
:1028E000AD002408AC002308AB00B201B101B00177
:1028F000AF01B601B5012808B4002708B3000130C4
:10290000B70088312000D720903102302300AA0080
:10291000FA30D000803120007E2090312300AA0BB5
:10292000882C8031200094209031BB2C22008031F3
:102930002000DE27903104302300AA00FA30D000B6
:10294000803120007E2090312300AA0B9E2C8831FC
:1029500020004824903102302300AA00FA30D00031
:10296000803120007E2090312300AA0BAE2C8031D4
:1029700020009420903180312326903198319D2A77
:102980003908173C031D032D8831A12390313A08E3
:102990002300A60020003B082300A50020003C08DF
:1029A0002300A40020003D082300A30020003E08CF
:1029B0002300AA0020003F082300A90020004008AF
:1029C0002300A800200041082300A7002608AF002C
:1029D0002508AE002408AD002308AC002A08B30087
:1029E0002908B2002808B1002708B0008031200073
:1029F0007C2790318831A12390318031232690317A
:102A00008031942090319831A02A3908223C031D4E
:102A1000662D3A082300A60020003B082300A500ED
:102A200020003C082300A40020003D082300A30050
:102A3000200040082300A800200041082300A70030
:102A40000230AA0020003E082300AB0080312000A5
:102A50004B2190318031C921903122005F08663CC2
:102A6000031D5C2D88312000A12390310430230008
:102A7000AA00FA30D000803120007E20903123005F
:102A8000AA0B392D2708AB00AA012608AF0025089C
:102A9000AE002408AD002308AC00B301B201270842
:102AA000B1002A08B000803120007C2790318831A5
:102AB000A1239031602D22008831200048249031DC
:102AC0008031232690318031942090319831A32A8F
:102AD0003908A03C031D8C2D2300AA01AB018031D5
:102AE00020004B2190318031C921903122005F08B4
:102AF000663C031D802D88312000A12390312200E7
:102B0000DF08031D882D88312000482490312200E1
:102B100080312000232690319831A92A3908213CA0
:102B2000031DAB2D80312C2290318031E624903171
:102B300002302300A300FA30D000803120007E2034
:102B400090312300A30B9B2D8031200094209031E5
:102B50008031232690319831AC2A3908203C031D5E
:102B6000212E2300BB01BA01B901B8018031200038
:102B70004E2690312300C001BF01BE01BD012000DF
:102B800040082300C100803120002A279031230013
:102B9000C001BF01BE010130BD0020003A08230082
:102BA000C100803120002A2790312300C001BF01DD
:102BB000BE010230BD0020003B082300C10080316F
:102BC00020002A2790312300C001BF01BE0103303D
:102BD000BD0020003C082300C100803120002A27CE
:102BE00090312300C001BF01BE010430BD002000B0
:102BF0003D082300C100803120002A2790312300A6
:102C0000C001BF01BE010530BD0020003E08230009
:102C1000C100803120002A2790312300C001BF016C
:102C2000BE010630BD0020003F082300C1008031F6
:102C300020002A2790318831A1239031803123262A
:062C400090319831AF2A2B
:10300000A40123009F1522309B0000309C00A630B5
:103010009E0090309D0021008D1122008D15210011
:103020008D1022008D1421000F178F130F12220014
:103030000F1221000E168E128E1122008E1120000A
:10304000AB01AA01A901A801AF01AE01AD01AC011C
:10305000B001B401B301B201B1015130B500C401F6
:10306000F1012200EE01ED01EC01EB01F201F301AF
:10307000F401F501F601FB01FC01FD01FE01EF0188
:1030800001302300A000A1018C018D018E018F0170
:1030900090012200920191015F280E3440343634B1
:1030A0000034013401344334AA340E34C0340034C3
:1030B00001348034BB341834C03400340034183048
:1030C00085004D30840085171200F700003A03197F
:1030D00079281200F800F81B71280F3987001200B8
:1030E0008600781B1200781F12001E00F70B732851
:1030F0006428803120005228983125302100970023
:1031000014302300A300FA30D000803120007E204C
:1031100098312300A30B832880312000942098311C
:103120008031152998317908A7007808A600013068
:103130002300AA00AB01803120004B21983180315F
:10314000C92198318031362E9831640022006108FF
:10315000773C031DB9282300A1080319B1282200D8
:10316000B92877302000B00001302300A000A10072
:103170002200E108031DC8282000B001013023000F
:10318000A000A1012000AB01AA01A901A801220011
:103190006108353C031DD42835302000B000AB0158
:1031A000AA01A901A801220020003008773C031DD4
:1031B00079292300200B3729220062082000AB0068
:1031C000220063082000AA00220064082000A90051
:1031D000220065082000A800220066082000AF0039
:1031E000220067082000AE00220068082000AD0021
:1031F000220069082000AC0002302300AA00013040
:10320000AB00803120004B2198310C302300A3000B
:10321000FA30D000803120007E2098312300A30BAB
:10322000082920002B082300AF0020002A082300D3
:10323000AE00200029082300AD002000280823004C
:10324000AC0020002F082300B30020002E0823002C
:10325000B20020002D082300B10020002C0823001C
:10326000B000803120007C2798312300A0018031FC
:103270002000DE27983104302300A300FA30D0006C
:10328000803120007E2098312300A30B3E292000AE
:103290002B082300AE0020002A082300AD002000E8
:1032A00029082300AC00200028082300AB00B2014D
:1032B000B101B001AF01B601B501B4010530B300F1
:1032C0000130B70088312000D72098310230230028
:1032D000A300FA30D000803120007E2098312300F6
:1032E000A30B692980312000232698318031942056
:1032F00098313008353C031D502A22006208200016
:10330000AB00220063082000AA002200640820000D
:10331000A900220065082000A800220066082000FD
:10332000B400220067082000B300220068082000D3
:10333000B200220069082000B10034082300DB003D
:10334000200033082300DA00200032082300D900CF
:10335000200031082300D800DF01DE01DD0120005C
:1033600035082300DC0088312000002098317A08DD
:10337000AF007908AE007808AD007708AC000230E5
:103380002300AA000130AB00803120004B2198318E
:103390000C302300A300FA30D000803120007E20C2
:1033A00098312300A30BCB2920002B082300AF006A
:1033B00020002A082300AE00200029082300AD00C9
:1033C000200028082300AC0020002F082300B300B1
:1033D00020002E082300B20020002D082300B10099
:1033E00020002C082300B000803120007C27983179
:1033F0008031DE27983104302300A300FA30D0005A
:10340000803120007E2098312300A30BFE2920006C
:103410002B082300AE0020002A082300AD00200066
:1034200029082300AC00200028082300AB00B201CB
:10343000B101B001AF01200034082300B600200024
:1034400033082300B500200032082300B400200018
:1034500031082300B3000130B70088312000D720A5
:10346000983102302300A300FA30D00080312000D0
:103470007E2098312300A30B342A8031200023269C
:103480009831803194209831AB01AA01A901A8019B
:10349000B401B301B201B101AF01AE01AD01AC01A4
:1034A00064008031942098312300A2012208273C37
:1034B000031CC52A88312000B52A98317008AA3C1F
:1034C0000319662A7008BB3C031D6D2A3808903C1E
:1034D000031D6D2A88312D2C9831220041083F02AE
:1034E000031DB12A42084002031DB12A7008AA3CFC
:1034F00003197E2A7008BB3C031DB12A200038083E
:10350000AA3C031D862A8831C82C98318831EF2CBB
:1035100098318831782D98318831852F98319031C4
:103520000028983190314F2A98319031A32A983150
:103530009031152B98319031FF2B98319031C02C60
:1035400098319031052D98318831C62F98319031BE
:10355000682D983190318E2D98319031AD2D983164
:1035600022002000A4018031232698310830230056
:10357000A300FA30D000803120007E209831230053
:10358000A30BB92A6400A20A562A200090286300DF
:020000040001F9
:04000E00BA39231EBA
:00000001FF
;PIC16F1789
;CRC=C6BD  CREATED="10-jun.-21 17:31"
